:020000020000FC
:10000000CFEFD8E0DEBFCDBF0E94190040E00E94D4
:1000100025000E941E000E9428000E941E004A998E
:100020004130C9F02D984A9B2D9A0E941E00EECFB8
:100030000895519A5298259A2D98089512E322E333
:100040002A95F1F71A95D9F70895599A4395089585
:1000500059984A95089502E004B9299815E001D00D
:10006000CFCF103089F0299A0E943D0029980E9434
:100070003D001A950E943D00F4CF20E234E23A950B
:0A008000F1F72A95E1F70895FFCF8C
:00000001FF
